:10018300012731012832012933012A340F08492775
:100193006D204E696E67204B656A756E000F1720E0
:0E01A3002032303135323131383632202000F2
:0701B2001201D77F147E004B
:1001B900D3EF9400EE940040147D0A7C00ED1D708D
:0D01C900011CED4C70F7EF1F70E61E80E387
:0101D6002206
:10000300D3EF9400EE940040147D647C00ED1D70EA
:0D001300011CED4C70F7EF1F70E61E80E33E
:0100200022BD
:1001D7008F80C2B5C2B47F0A7E001201B9D2B47F44
:0901E7000A7E001201B9C2B42223
:1001F0008F80D2B5C2B47F0A7E001201B9D2B47F1B
:090200000A7E001201B9C2B42209
:10014600C2AF53890F438920759850758DFA758B08
:10015600FA438780D2ACD28ED29CD2AFC2B6C2A6A8
:10016600C2A77F381201B27F0F1201B27F061201B9
:0D017600B27F011201D77F147E000201B993
:0A0215008F99752601E52670FC2282
:100026001201467F911201B2E4FB74082BF8E6FF39
:100036001201F01201B50BBB0EF07FD11201D77F72
:10004600327E001201B9E4FB74172BF8E6FF1201A9
:10005600F07F287E001201B90BBB0DECE4FB7F1884
:100066001201D77F587E021200030BBB10F020B09E
:100076000E1201B520B00830B0FDAF2712021520D0
:10008600B10E1201B520B10830B1FDAF281202152C
:1000960020B20E1201B520B20830B2FDAF2912020D
:1000A6001520B3CA1201B520B3C430B3FDAF2A126E
:0400B600021580BAF5
:03002300020209CD
:0C020900309803C29832C299752600326A
:030000000200BA41
:0C00BA00787FE4F6D8FD75812A02010170
:1000C600020026E493A3F8E493A34003F68001F22A
:1000D60008DFF48029E493A3F85407240CC8C3333B
:1000E600C4540F4420C8834004F456800146F6DF0A
:1000F600E4800B0102040810204080900183E47E16
:10010600019360BCA3FF543F30E509541FFEE493FE
:10011600A360010ECF54C025E060A840B8E493A3C5
:10012600FAE493A3F8E493A3C8C582C8CAC583CAF0
:10013600F0A3C8C582C8CAC583CADFE9DEE780BEA8
:0101B100004D
:00000001FF
