:100257003F065B4F666D7D077F6F777C395E7971EF
:1001B80011082020204E696E67204B656A756E20F5
:1001C800202000111920202020202020202020205D
:0601D80020202020200081
:0701DF001202257F147E00CF
:1001E600D3EF9400EE940040147D0A7C00ED1D7060
:0D01F600011CED4C70F7EF1F70E61E80E35A
:0102030022D8
:10000300D3EF9400EE940040147D647C00ED1D70EA
:0D001300011CED4C70F7EF1F70E61E80E33E
:0100200022BD
:100225008F80C2B5C2B47F0A7E001201E6D2B47FC8
:090235000A7E001201E6C2B422A7
:10023E008F80D2B5C2B47F0A7E001201E6D2B47F9F
:09024E000A7E001201E6C2B4228E
:10020400C2B6C2A6C2A77F381201DF7F0F1201DF78
:100214007F061201DF7F011202257F147E00020196
:01022400E6F3
:10016200120204759850E4F587758920D2AFD2AC9B
:10017200758BFD758DFDD28E7F801201DFE4FB74DD
:10018200082BF8E6FF12023E1201E20BBB10F07FD1
:10019200C01202257F327E001201E6E4FBEBC3941B
:1001A2001050C074192BF8E6FF12023E7F287E0021
:0601B2001201E60B80E7DC
:03002300020026B2
:10002600C0E0C0F0C083C082C0D075D000C004C09C
:1000360005C006C007C2ACC29885992AE52A24D015
:10004600F52B90025793F580D2A6C2A67580FED2F4
:10005600A7C2A77FE87E031201E6E52A24CFB408EB
:1000660000505390007775F003A4C58325F0C5832F
:100076007302008F02009402009902009E0200A300
:100086000200A80200AD0200B27590FE80217590B4
:10009600FD801C7590FB80177590F780127590EFA8
:1000A600800D7590DF80087590BF800375907FD2B4
:1000B600A3852A1A8005C2A37590FFD2ACD007D0BB
:1000C60006D005D004D0D0D082D083D0F0D0E03294
:030000000200D625
:0C00D600787FE4F6D8FD75812B02011D37
:1000E200020162E493A3F8E493A34003F68001F2D1
:1000F20008DFF48029E493A3F85407240CC8C3331F
:10010200C4540F4420C8834004F456800146F6DFED
:10011200E4800B01020408102040809001B8E47EC4
:10012200019360BCA3FF543F30E509541FFEE493E2
:10013200A360010ECF54C025E060A840B8E493A3A9
:10014200FAE493A3F8E493A3C8C582C8CAC583CAD4
:10015200F0A3C8C582C8CAC583CADFE9DEE780BE8C
:0101DE000020
:00000001FF
